:030000000210DE0D
:0C10DE00787FE4F6D8FD75812D02112505
:1008220004AE530A57485526BD0D26500D95444631
:10083200AAB9056A4D09AD4224AEB604AE4A6A4D64
:10084200BE0A4D520D25465D52BA0B544E0D6A43F7
:10085200296D37095B4B749BC10497540A4B485B63
:1008620025BC06A55006D4454ADAB802B64D09574A
:10087200422497B704974A664B3E0D4A510EA5464D
:1008820056D4BA05AD4E02B644393738092E4B7CE0
:1008920096BF0C95530D4A486DA53B0B554F056A03
:1008A200454AADB9025D4D092D422C95B60A954ACD
:1008B2007B4ABD06CA510B5546555ABB04DA4E0A4D
:1008C2005B43352BB8052B4C8A953F0E955206AAF1
:1008D200487AD53C0AB54F04B6454A57390A574DAE
:1008E2000526423E93350D954975AABE056A510902
:1008F2006D4654AEBB04AD4F0A4D434D26B70D2590
:100902004B8D52BF0B54520B6A47696D3C095B50C9
:10091200049B454A4BB90A4B4DAB25C206A554066A
:10092200D4496ADA3D0AB6510937465497BB04974F
:100932004F064B4436A5370EA54A86B2BF05AC53C7
:100942000AB6475936BC092E500C96454D4AB80D89
:100952004A4C0DA54125AAB6056A497AADBD025D8C
:1009620052092D475C95BA0A954E0B4A434B5537AF
:100972000AD54A955ABF04BA530A5B48652BBC058F
:100982002B500A9345474AB906AA4C0AD54124DAA4
:10099200B604B64A69573D0A4E510D26465E933A51
:1009A2000D534D05AA4336B537096D4BB4AEBF049E
:1009B200AD530A4D486D25BC0D254F0D52445DAA1D
:1009C200380B5A4C056D4124ADB6049B4A7A4BBE96
:1009D2000A4B510AA5465B52BA06D24E0ADA423592
:1009E2005B3709374B8497C1049753064B4866A57A
:1009F2003C0EA54F06B2444AB6380AAE4C092E4206
:100A02003C97350C96497D4ABD0D4A510DA5455579
:100A1200AABA056A4E0A6D43452EB7052D4B8A9533
:100A2200BF0A95530B4A476B553B0AD54F055A45AA
:100A32004A5D380A5B4C052B423A93B606934977D6
:100A420029BD06AA510AD54654DABA04B64E0A5747
:100A5200434527380D264A8E933E0D52520DAA4722
:100A620066B53B056D4F04AE454A4EB90A4D4C0D75
:100A720015412D92B5001F3B5A7897B5D4F3011159
:100A82000130014E000303060104060205000305BE
:100A9200323020202D20202D2020200020203A201E
:100AA200203A2020004E4C3A20202D20202D2020BC
:100AB2002050494E47004E4C3A20202D20202D2018
:100AC200202052554E200074696D65723A20202014
:100AD200202D20202D20200020202020202020201A
:0E0AE20020202020202020200074696D650057
:0F14F60001090C010800011E00C102C103C10160
:060F0200AD2DAC2CAF295F
:100F0800EF14B40D00400302104A900F2075F0034F
:100F1800A4C58325F0C58373020F47020F5B020F38
:100F28006F020F83020F97020FAB020FBF020FD39E
:100F3800020FE7020FFB02100F0210230210377492
:100F4800222DF58274083CF583E49354087002C39B
:100F580022D32274222DF58274083CF583E493543D
:100F6800047002C322D32274222DF58274083CF542
:100F780083E49354027002C322D32274222DF58293
:100F880074083CF583E49354017002C322D322749D
:100F9800232DF58274083CF583E49354807002C3D2
:100FA80022D32274232DF58274083CF583E49354EC
:100FB800407002C322D32274232DF58274083CF5B5
:100FC80083E49354207002C322D32274232DF58224
:100FD80074083CF583E49354107002C322D322743E
:100FE800232DF58274083CF583E49354087002C3FA
:100FF80022D32274232DF58274083CF583E493549C
:10100800047002C322D32274232DF58274083CF5A0
:1010180083E49354027002C322D32274232DF582F1
:1010280074083CF583E49354017002C322D32274FC
:10103800242DF58274083CF583E49354807002C330
:0210480022D3B1
:01104A002283
:100AF000E525C4540FFBE525540FFAEBC454F02A46
:100B0000F525E526C4540FFBE526540FFAEBC45433
:100B1000F02AF526E527C4540FFBE527540FFAEB1E
:100B2000C454F02AF527E5252004072463FFE433A5
:100B3000800624FFFFE434FFFE7C007D031207AD36
:100B40008E2C8F2D7424252DF5827408352CF58379
:100B5000E493FE5460FB7805FF08800103D8FDFB99
:100B6000EE541FFABB010514F5288005EA241EF592
:100B700028E526C3940AE526500B900A769325278C
:100B8000FFE433801525E0246CF582E4340AF58314
:100B90007401932527FFE4933400CF24FFF52BEF56
:100BA00034FFF52AE526D39402400EE52554037060
:100BB00008052BE52B7002052AAF287E00C3E52B24
:100BC0009FE52A9E4079E52B9FF52BE52A9EF52A85
:100BD000752601752901120F029205C2062005042F
:100BE0007B1D80027B1E7422252DF5827408352C16
:100BF000F583E49354F0FA7804FF08800103D8FDEC
:100C0000FAEBFF7E00C3E52B9FE52A9E402CE52BE7
:100C10009FF52BE52A9EF52A0529E526B50209B29E
:100C200006200606052680020526120F02920520E0
:100C300005047B1D80CB7B1E80C7E52B020CC4C343
:100C4000E528952BF528E5257007752563D20480E6
:100C500002152574FD252DF52D74FF352CF52C7509
:100C6000260CFE7422252DF58274083EF583E4934C
:100C700054F0FA7804FF08800103D8FDFA70057576
:100C8000290C800375290DC206120F02920520055A
:100C9000047B1D80027B1EE528D39B4023E5289B17
:100CA000F52815292006021526E526B50202B2060A
:100CB000120F0292052005047B1D80DB7B1E80D76E
:100CC000C3EB952804F527A2049200E52575F00AE8
:100CD00084FB7804FF08800123D8FDFBE52575F02F
:100CE0000A84AAF0EB4AF516E52675F00A84FB782B
:100CF00004FF08800123D8FDFBE52675F00A84AACD
:100D0000F0EB4AF514E52775F00A84FB7804FF0838
:100D1000800123D8FDFBE52775F00A84AAF0EB4A91
:020D2000F519C3
:010D220022AE
:1013710074642FFF1313543F2F75F00784AEF0EE02
:101381002BFEED900A85932EFEEF54037007EDC3FB
:0D139100940350011EEE75F0078485F00FE7
:01139E00222C
:0B152300EF1FAC0670011E4C70F6229A
:1013F000E4D2B77F08FE121523C2B77F507E0012D9
:101400001523D2B77F0E7E00121523A2B77F147E5C
:04141000000215239E
:10141400E4FB7D08C2B7EBC313FBD2B730B7034379
:0D14240003807F047E00121523DDE9AF0375
:011431002298
:02146C00AD07CA
:10146E007B08C2B7ED1392B77F057E00121523D20B
:07147E00B7EDC313FDDBEB2A
:011485002244
:1011D600E4FAFFFDFCF528F527F526F5251213F0B0
:1011E6007FCC12146C7F4412146C1213F07FCC1255
:1011F600146C7FBE12146C121414AA07121414ADC8
:1012060007EDFCEAFDE41206F3E4FBFA7980783D8B
:101216001205E88F288E278D268C25E4FFFE7D207B
:101226007C41AB28AA27A926A8251205E8E4FBFAE3
:09123600F9783F1204F712072CAD
:01123F00228C
:1012E400C2A68F807F017E001212F5D2A77F017EF5
:0112F40000F9
:1012F500D3EF9400EE940040147D6E7C00ED1D70DC
:0D130500011CED4C70F7EF1F70E61E80E339
:0113120022B8
:05000E00FAEF24C0FF21
:08001300C2A51212E4C2A722EB
:07150600900A9EE51C93FF13
:08150D00D2A51212E4C2A722CC
:1012A4007F381200137F0C1200137F061200137F85
:1012B400011200137F81120013E4F51C900A9212AC
:1012C4001509051CE51CC3940E40F17FC0120013E0
:1012D400E4F51C121506051CE51CC3940840F42211
:06148600C292C290D29256
:10148C00EFD292751C08A2E09291C290D290C31335
:04149C00D51CF32246
:1014CE00D292751C08A29192E7D290C290C313D506
:0414DE001CF3FF22DA
:10131300AD0E7F06121354E50E75F00A84C454F023
:10132300FFE50E75F00A84EF25F0F510E4FD7F8EDE
:0F133300AE05121486AF0612148CD290C292220D
:0A152E001214861214CED290C2925D
:011538002290
:0314E20012152EB2
:1014E500EFC4540FFEEF540FFDEE75F00AA42DFF67
:0114F50022D4
:0E151500C292C29012132F7D807F8E0213337C
:06116A008F25AB05AA046D
:101170007C007D64AF03AE021207BF8E268F277CF2
:10118000007D64AF03AE021207BF7E007F0ACFCDA1
:10119000CFCECCCE1207BF8F82AE02AF037C007DD4
:1011A0000A1207BFAB05AA04E52524C0FF120013ED
:1011B000E5272430FF12150DE5822430FF12150DAE
:1011C0007F2E12150DEB2430FF12150D7FDF121547
:0611D0000D7F4302150D26
:10134200AD097F08121354AD087F0B121354AD1E62
:021352007F0E0C
:10135400ED75F00A84ABF0ED75F00A8412000EEA24
:0D1364002430FF12150DEB2430FF02150D93
:0413CA00AD1A7F09D0
:1013CE00ED75F00A84ABF0ED75F00A84FAEF248027
:1013DE00FF120013EA2430FF12150DEB2430FF022A
:0213EE00150DDB
:1014A000ED540FFBEDC4540F12000EEA2430FF126E
:0914B000150DEB2430FF02150DAF
:0B104B00AB1AAD17AF0D121371AF0F01
:10105600AB077F8C120013EBB40700507A90106A2E
:10106600F82828730210CE02107F0210880210960C
:101076000210A40210B20210C07F4D12150D7F4F50
:10108600804D7F5412150D7F5512150D7F458044F6
:101096007F5712150D7F4512150D7F4480367F54FC
:1010A60012150D7F4812150D7F5580287F461215A3
:1010B6000D7F5212150D7F49801A7F5312150D7F31
:1010C6005412150D7F41800C7F5312150D7F55125A
:0810D600150D7F4E12150D22CD
:10001E0020B3347F097E001212F520B32AE5127048
:10002E0023E51D701FC2A07F14FE1212F5D2A03060
:10003E008E04C28E800E0518E518B40307E4F5127F
:10004E00F51DF51830B3FD30B0030201497F097E6E
:10005E00001212F530B003020149C2A07F147E00D7
:10006E001212F5D2A030B0FDE51864027057051DCE
:10007E00E51DB40407E4F51DF512D202E51D14606A
:10008E0033146034146035240360030201497F0C7D
:10009E001200137FC0120013E4F51CE51C900AC970
:1000AE0093FF12150D051CE51CC3941040ED1213A1
:1000BE00420201497FCF80067FCC80027FC91200A9
:1000CE00137F0F8059E51870720512E512B40703FD
:1000DE00E4F512E512B4070050619000EFF82828FD
:1000EE007302013102010402011A02011E020122F1
:1000FE0002012602012AC28C7FC71200137F0F1243
:10010E00001312131AE5104480FD80237FC4800E65
:10011E007FC1800A7F8A80067F8780027F841200DB
:10012E001380187F0C120013D28C12131AAD107F8D
:10013E00801213337D807F8E121333E5127003020B
:10014E00041AE51D600302041A30B1030202BC7FDB
:10015E000AFE1212F530B1030202BCC2A07F147E59
:10016E00001212F5D2A030B1FDE51224FE603C144F
:10017E00606C14700302021F14700302025114709B
:10018E0003020286240560030202BC050EE50EB4CE
:10019E003C03E4F50E121313AD107F801213337D62
:1001AE00807F8E1213337FC70202B90511E511B499
:1001BE003C03E4F511AD117F03121354E51175F0F4
:1001CE000A84C454F0FFE511121326AD107F82127B
:1001DE0013337D807F8E1213337FC40202B905154F
:1001EE00E515B41803E4F515AD15E4FF121354E547
:1001FE001575F00A84C454F0FFE515121326AD10E0
:10020E007F841213337D807F8E1213337FC10202DF
:10021E00B9051AE51AB42003751A0112104B121300
:10022E00CAE51A75F00A84C454F0FFE51A121326B3
:10023E00AD107F861213337D807F8E1213337F8A2B
:10024E000202B90517E517B40D0375170112104B0D
:10025E00AD177F061213CEE51775F00A84C454F05D
:10026E00FFE517121326AD107F881213337D807FA2
:10027E008E1213337F878033050DE50DB46403E4CE
:10028E00F50D12104BAD0D7F031213CEE50D75F06B
:10029E000A84C454F0FFE50D121326AD107F8C12A4
:1002AE0013337D807F8E1213337F8412001330B28E
:1002BE000302041A7F0A7E001212F530B203020402
:1002CE001AC2A07F147E001212F5D2A030B2FDE544
:1002DE001224FE603C14606C1470030203851470CB
:1002EE00030203B31470030203E424056003020443
:1002FE001A150EE50EB4FF03750E3B121313AD1057
:10030E007F801213337D807F8E1213337FC70204DA
:10031E00171511E511B4FF0375113BAD117F0312D3
:10032E001354E51175F00A84C454F0FFE51112134D
:10033E0026AD107F821213337D807F8E1213337F92
:10034E00C40204171515E515B4FF03751517AD1581
:10035E00E4FF121354E51575F00A84C454F0FFE55A
:10036E0015121326AD107F841213337D807F8E12EB
:10037E0013337FC1020417D51A03751A1F12104BBF
:10038E001213CAE51A75F00A84C454F0FFE51A1266
:10039E001326AD107F861213337D807F8E1213339A
:1003AE007F8A020417D5170375170C12104BAD1761
:1003BE007F061213CEE51775F00A84C454F0FFE5DC
:1003CE0017121326AD107F881213337D807F8E1285
:1003DE0013337F878033150DE50DB4FF03750D6361
:1003EE0012104BAD0D7F031213CEE50D75F00A847E
:1003FE00C454F0FFE50D121326AD107F8C1213338B
:10040E007D807F8E1213337F84120013E51D7003DF
:10041E000204EFE51260030204EF20B1607F0AFED2
:10042E001212F520B157C2A07F147E001212F5D21F
:10043E00A030B1FDE51D24FE601814602A24027060
:10044E003C051EE51EB43C03E4F51E1213507FCF8F
:10045E0080280508E508B43C03E4F508AD087F0BD9
:10046E001213547FCC80130509E509B41803E4F583
:10047E0009AD097F081213547FC912001320B2610F
:10048E007F0A7E001212F520B257C2A07F147E00A2
:10049E001212F5D2A030B2FDE51D24FE60181460D4
:1004AE002A2402703C151EE51EB4FF03751E3B1276
:1004BE0013507FCF80281508E508B4FF0375083B5D
:1004CE00AD087F0B1213547FCC80131509E509B4C8
:1004DE00FF03750917AD097F081213547FC9120067
:0204EE001322D7
:10143200758911E4F58CF58A758D3C758BB0D2AF48
:0D144200D2A9D2ABD28AC288D28CC28E222F
:10139F00E515B5090BE511B50806E50E7002D28EFD
:1013AF00E515B50915E5082401FFE433FEE511B590
:0B13BF000708E4B50604C28ED2A0228D
:1014B900C2A07F057E001212F5D2A00513E513B56F
:0514C9001F02C2032216
:101240007590FF1212A4121515121432C2A4C2A076
:101250007F507E001212F5D2A012001E300203123F
:10126000139FE511702AE50E7026E515C4540F751D
:10127000F00AA42515540FF51FD3940C400674F4FE
:10128000251FF51FE51F7003751F0C850E0CD2037B
:101290003003C61214B912001EE50C650E60F78506
:0412A0000E0C80B5FB
:03000B00020D23C0
:100D2300C0E0C0F0C083C082C0D075D000C000C096
:100D330001C002C003C004C005C006C0077F811202
:100D430014E28F0E7F831214E28F117F8512152E0A
:100D53001214E58F157F8712152E1214E58F1A7F53
:100D63008912152E1214E58F177F8D12152E12146A
:0C0D7300E58F0DE51864016003020E49D5
:100D7F00F5238F24FEE52454F0FF7C007D0A120733
:100D8F00ADEF24D0FFEE3407CF2524CF752100EF30
:100D9F00540FF522AE21FF0C7D901207BFED4C6072
:100DAF0015AE21AF227C007D641207BFED4C600AA7
:100DBF00E52254037004D2018002C201C204850DE2
:100DCF0025851726851A27120AF07FC01200137582
:100DDF001C00E51C200105900AA78003900AB89318
:100DEF00FF12150D051CE51CC3941040E5AD167FD1
:100DFF00031214A0AD147F061214A0AD197F0912AF
:100E0F0014A012001EE518640160F77FC0120013D2
:100E1F00751C00E51C900ADA93FF12150D051CE5F1
:100E2F001CC3941040ED7FC0120013751C001215E7
:0A0E3F0006051CE51CC3940840F4EE
:100E4900E518640270587FC0120013751C00E51C78
:100E5900900AC993FF12150D051CE51CC394104097
:100E6900ED12134212001EE518640260F77FC012EA
:100E79000013751C00E51C900ADA93FF12150D0585
:100E89001CE51CC3941040ED7FC0120013751C00B3
:100E9900121506051CE51CC3940840F4802C121198
:100EA900D6EF24FBF50BEE34FFF50AAD0BFC7F0AF8
:100EB90012116A8000AD0E7F06121354AD117F0323
:100EC900121354AD15E4FF1213541213CAAD177F50
:100ED900061213CEAD0D7F031213CE12104BD0079D
:100EE900D006D005D004D003D002D001D000D0D094
:090EF900D082D083D0F0D0E032A9
:03001B0002144F7D
:10144F00C0E0C0D0758D3C758BB0D28E051BE51BEF
:0D145F00B40A05751B00B2A0D0D0D0E03259
:1004F000020798E86480F8E933E83360110460F09B
:10050000ED33EC337009E8FCE9FDEAFEEBFF220471
:1005100060DED3EB9FEA9EE99DE8C2E78CF0C2F76C
:1005200095F0400CE8CCF8E9CDF9EACEFAEBCFFB38
:1005300012076385D0F05804700320D5B3E8047027
:10054000075002B2D50207A292D5EC0460F7E4CCC2
:10055000C0E0C398F8603B94186008400DD0E0FB01
:1005600002077AE4FBFAC9FC8028E830E406E4C913
:10057000FBE4CAFCE830E305E4C9CACBFCE8540755
:100580006010F8C3E913F9EA13FAEB13FBEC13FC60
:10059000D8F130F52FC3E49CFCEF9BFFEE9AFEED03
:1005A00099FDD0E0FBEF4E4D4C701222DB030207A9
:1005B0009FEC2CFCEF33FFEE33FEED33FDED30E727
:1005C000EB02077AEF2BFFEE3AFEED39FDD0E0FBB0
:1005D00050130BBB00030207A2ED13FDEE13FEEF59
:0805E00013FFEC13FC02077A83
:1005E800EC4D6011E8497017ED33EC3304600DE40D
:1005F800FCFFFEFD22E933E8330470F80207981285
:10060800076358046009E4CC248150062850090285
:1006180007A228400302079FC0E0EB4A7044B98054
:1006280006D0E0FB02078EEF4E701CBD8008EBFF82
:10063800EAFEE9FD80EBE98DF0A4FEE5F00206D1C3
:10064800E9CDF9EAFEEBFFEF89F0A4FCE5F0CE89ED
:10065800F0A42EFFE435F0CD89F0A42DFEE435F0AA
:100668008067EF4E7005BD80D780C3EF8BF0A4ACD8
:10067800F0EE8BF0A42CFCE435F0F8EF8AF0A42C13
:10068800E5F038FCE433CB8DF0A42CFCE5F03BF826
:10069800EE8AF0A42CFCE5F038F8E433CF89F0A416
:1006A8002CFCE5F038CF3400CE89F0A42FFFE5F01C
:1006B8003EFEE433C98DF0A42EFEE5F039CD8AF074
:1006C800A42FFFE5F03EFEE43DFD33D0E0FB5007EC
:1006D8000BBB000F0207A2EC2CFCEF33FFEE33FE3E
:0606E800ED33FD02077A6C
:1006EE0075F020800E75F010800575F0087D007E87
:1006FE00007F003392D530D503120814EC3340102E
:10070E00EF33FFEE33FEED33FDEC33FCD5F0ED228F
:0E071E00E5F0247EA2D513CC92E7CDCEFF22CB
:10072C00EDD2E7CD33EC3392D524814006E4FFFEC5
:10073C00FDFC22FCE4CFCECDCC24E0501174FF8024
:10074C00EDC3CC13CCCD13CDCE13CECF13CF0470C1
:07075C00F030D5DE020814A5
:10076300E9D2E7C933E833F892D5EDD2E7CD33ECDC
:0707730033FC5002B2D52255
:10077A00EC30E7100FBF000C0EBE00080DBD0004E0
:10078A000BEB6014A2D5EB13FCED92E7FD2274FF8C
:10079A00FCFDFEFF22E480F8A2D574FF13FC7D80E5
:0307AA00E480EFF9
:1010EA00021240E493A3F8E493A34003F68001F2CA
:1010FA0008DFF48029E493A3F85407240CC8C33307
:10110A00C4540F4420C8834004F456800146F6DFD5
:10111A00E4800B01020408102040809014F6E47E5B
:10112A00019360BCA3FF543F30E509541FFEE493CA
:10113A00A360010ECF54C025E060A840B8E493A391
:10114A00FAE493A3F8E493A3C8C582C8CAC583CABC
:10115A00F0A3C8C582C8CAC583CADFE9DEE780BE74
:0115050000E5
:1007AD00EF8DF0A4A8F0CF8CF0A428CE8DF0A42E60
:0207BD00FE221A
:1007BF00BC000BBE0029EF8DF084FFADF022E4CC1E
:1007CF00F875F008EF2FFFEE33FEEC33FCEE9DECE7
:1007DF00984005FCEE9DFE0FD5F0E9E4CEFD22ED2D
:1007EF00F8F5F0EE8420D21CFEADF075F008EF2F77
:1007FF00FFED33FD4007985006D5F0F222C398FD68
:05080F000FD5F0EA2204
:0E081400C3E49FFFE49EFEE49DFDE49CFC22F5
:00000001FF
